:100000000C9472000C947E000C947E000C947E0084
:100010000C947E000C947E000C947E000C947E0068
:100020000C947E000C947E000C947E000C947E0058
:100030000C947E000C947E000C947E000C947E0048
:100040000C947E000C947E000C947E000C947E0038
:100050000C947E000C947E000C947E000C947E0028
:100060000C947E000C947E000C947E000C947E0018
:100070000C947E000C947E000C947E000C947E0008
:100080000C947E000C947E000C947E000C947E00F8
:100090000C947E000C947E000C947E000C947E00E8
:1000A0000C947E000C947E000C947E000C947E00D8
:1000B0000C947E000C947E000C947E000C947E00C8
:1000C0000C947E000C947E000C947E000C947E00B8
:1000D0000C947E000C947E000C947E000C947E00A8
:1000E0000C947E0011241FBECFEFD1E2DEBFCDBF46
:1000F00000E00CBF0E94A7000C94E6000C940000E6
:10010000CF93DF9300D01F92CDB7DEB719821A824A
:100110001B821C8201C0000089819A81AB81BC8155
:100120009C01AD012F5F3F4F4F4F5F4F29833A83B3
:100130004B835C838035934CA105B10564F30000CB
:100140000F900F900F900F90DF91CF910895CF9364
:10015000DF93CDB7DEB784E290E024E230E0F9012E
:1001600020812068FC01208384E290E024E230E0DA
:10017000F90120812064FC01208385E290E025E2E2
:1001800030E0F90120812068FC01208385E290E0C5
:1001900025E230E0F90120812064FC0120830E94E7
:1001A000800085E290E025E230E0F90120812F77A0
:1001B000FC01208385E290E025E230E0F901208116
:1001C0002064FC0120830E948000D7CFF894FFCFE9
:00000001FF
